{
  "_format": "hh-sol-artifact-1",
  "contractName": "Presale",
  "sourceName": "contracts/Presale.sol",
  "abi": [
    {
      "inputs": [
        {
          "internalType": "uint256",
          "name": "_rate",
          "type": "uint256"
        },
        {
          "internalType": "address",
          "name": "_token",
          "type": "address"
        }
      ],
      "stateMutability": "nonpayable",
      "type": "constructor"
    },
    {
      "inputs": [
        {
          "internalType": "address",
          "name": "owner",
          "type": "address"
        }
      ],
      "name": "OwnableInvalidOwner",
      "type": "error"
    },
    {
      "inputs": [
        {
          "internalType": "address",
          "name": "account",
          "type": "address"
        }
      ],
      "name": "OwnableUnauthorizedAccount",
      "type": "error"
    },
    {
      "anonymous": false,
      "inputs": [
        {
          "indexed": true,
          "internalType": "address",
          "name": "previousOwner",
          "type": "address"
        },
        {
          "indexed": true,
          "internalType": "address",
          "name": "newOwner",
          "type": "address"
        }
      ],
      "name": "OwnershipTransferred",
      "type": "event"
    },
    {
      "anonymous": false,
      "inputs": [
        {
          "indexed": true,
          "internalType": "address",
          "name": "_purchaser",
          "type": "address"
        },
        {
          "indexed": false,
          "internalType": "uint256",
          "name": "_amount",
          "type": "uint256"
        }
      ],
      "name": "TokensPurchased",
      "type": "event"
    },
    {
      "inputs": [],
      "name": "buyTokens",
      "outputs": [],
      "stateMutability": "payable",
      "type": "function"
    },
    {
      "inputs": [],
      "name": "end",
      "outputs": [
        {
          "internalType": "uint256",
          "name": "",
          "type": "uint256"
        }
      ],
      "stateMutability": "view",
      "type": "function"
    },
    {
      "inputs": [],
      "name": "owner",
      "outputs": [
        {
          "internalType": "address",
          "name": "",
          "type": "address"
        }
      ],
      "stateMutability": "view",
      "type": "function"
    },
    {
      "inputs": [],
      "name": "rate",
      "outputs": [
        {
          "internalType": "uint256",
          "name": "",
          "type": "uint256"
        }
      ],
      "stateMutability": "view",
      "type": "function"
    },
    {
      "inputs": [],
      "name": "renounceOwnership",
      "outputs": [],
      "stateMutability": "nonpayable",
      "type": "function"
    },
    {
      "inputs": [
        {
          "internalType": "uint256",
          "name": "_newRate",
          "type": "uint256"
        }
      ],
      "name": "setRate",
      "outputs": [],
      "stateMutability": "nonpayable",
      "type": "function"
    },
    {
      "inputs": [
        {
          "internalType": "uint256",
          "name": "_duration",
          "type": "uint256"
        }
      ],
      "name": "startPresale",
      "outputs": [],
      "stateMutability": "nonpayable",
      "type": "function"
    },
    {
      "inputs": [],
      "name": "started",
      "outputs": [
        {
          "internalType": "bool",
          "name": "",
          "type": "bool"
        }
      ],
      "stateMutability": "view",
      "type": "function"
    },
    {
      "inputs": [],
      "name": "token",
      "outputs": [
        {
          "internalType": "contract IERC20",
          "name": "",
          "type": "address"
        }
      ],
      "stateMutability": "view",
      "type": "function"
    },
    {
      "inputs": [],
      "name": "tokenSold",
      "outputs": [
        {
          "internalType": "uint256",
          "name": "",
          "type": "uint256"
        }
      ],
      "stateMutability": "view",
      "type": "function"
    },
    {
      "inputs": [
        {
          "internalType": "address",
          "name": "newOwner",
          "type": "address"
        }
      ],
      "name": "transferOwnership",
      "outputs": [],
      "stateMutability": "nonpayable",
      "type": "function"
    },
    {
      "inputs": [],
      "name": "withdraw",
      "outputs": [],
      "stateMutability": "payable",
      "type": "function"
    },
    {
      "inputs": [],
      "name": "withdrawTokens",
      "outputs": [],
      "stateMutability": "payable",
      "type": "function"
    }
  ],
  "bytecode": "0x60806040523480156200001157600080fd5b506040516200118f3803806200118f833981810160405281019062000037919062000278565b33600073ffffffffffffffffffffffffffffffffffffffff168173ffffffffffffffffffffffffffffffffffffffff1603620000ad5760006040517f1e4fbdf7000000000000000000000000000000000000000000000000000000008152600401620000a49190620002d0565b60405180910390fd5b620000be816200010f60201b60201c565b508160028190555080600160006101000a81548173ffffffffffffffffffffffffffffffffffffffff021916908373ffffffffffffffffffffffffffffffffffffffff1602179055505050620002ed565b60008060009054906101000a900473ffffffffffffffffffffffffffffffffffffffff169050816000806101000a81548173ffffffffffffffffffffffffffffffffffffffff021916908373ffffffffffffffffffffffffffffffffffffffff1602179055508173ffffffffffffffffffffffffffffffffffffffff168173ffffffffffffffffffffffffffffffffffffffff167f8be0079c531659141344cd1fd0a4f28419497f9722a3daafe3b4186f6b6457e060405160405180910390a35050565b600080fd5b6000819050919050565b620001ed81620001d8565b8114620001f957600080fd5b50565b6000815190506200020d81620001e2565b92915050565b600073ffffffffffffffffffffffffffffffffffffffff82169050919050565b6000620002408262000213565b9050919050565b620002528162000233565b81146200025e57600080fd5b50565b600081519050620002728162000247565b92915050565b60008060408385031215620002925762000291620001d3565b5b6000620002a285828601620001fc565b9250506020620002b58582860162000261565b9150509250929050565b620002ca8162000233565b82525050565b6000602082019050620002e76000830184620002bf565b92915050565b610e9280620002fd6000396000f3fe6080604052600436106100c25760003560e01c80638d8f2adb1161007f578063d0febe4c11610059578063d0febe4c146101f0578063efbe1c1c146101fa578063f2fde38b14610225578063fc0c546a1461024e576100c2565b80638d8f2adb146101925780638da5cb5b1461019c578063a132aad1146101c7576100c2565b80631f2698ab146100c75780632c4e722e146100f257806334fcf4371461011d5780633ccfd60b14610146578063519ee19e14610150578063715018a61461017b575b600080fd5b3480156100d357600080fd5b506100dc610279565b6040516100e99190610956565b60405180910390f35b3480156100fe57600080fd5b5061010761028c565b604051610114919061098a565b60405180910390f35b34801561012957600080fd5b50610144600480360381019061013f91906109d6565b610292565b005b61014e6102a4565b005b34801561015c57600080fd5b506101656102f4565b604051610172919061098a565b60405180910390f35b34801561018757600080fd5b506101906102fa565b005b61019a61030e565b005b3480156101a857600080fd5b506101b1610497565b6040516101be9190610a44565b60405180910390f35b3480156101d357600080fd5b506101ee60048036038101906101e991906109d6565b6104c0565b005b6101f8610548565b005b34801561020657600080fd5b5061020f610736565b60405161021c919061098a565b60405180910390f35b34801561023157600080fd5b5061024c60048036038101906102479190610a8b565b61073c565b005b34801561025a57600080fd5b506102636107c2565b6040516102709190610b17565b60405180910390f35b600460009054906101000a900460ff1681565b60025481565b61029a6107e8565b8060028190555050565b6102ac610497565b73ffffffffffffffffffffffffffffffffffffffff166108fc479081150290604051600060405180830381858888f193505050501580156102f1573d6000803e3d6000fd5b50565b60055481565b6103026107e8565b61030c600061086f565b565b6000600160009054906101000a900473ffffffffffffffffffffffffffffffffffffffff1673ffffffffffffffffffffffffffffffffffffffff166370a08231306040518263ffffffff1660e01b815260040161036b9190610a44565b602060405180830381865afa158015610388573d6000803e3d6000fd5b505050506040513d601f19601f820116820180604052508101906103ac9190610b47565b9050600160009054906101000a900473ffffffffffffffffffffffffffffffffffffffff1673ffffffffffffffffffffffffffffffffffffffff1663a9059cbb6103f4610497565b836040518363ffffffff1660e01b8152600401610412929190610b74565b6020604051808303816000875af1158015610431573d6000803e3d6000fd5b505050506040513d601f19601f820116820180604052508101906104559190610bc9565b610494576040517f08c379a000000000000000000000000000000000000000000000000000000000815260040161048b90610c53565b60405180910390fd5b50565b60008060009054906101000a900473ffffffffffffffffffffffffffffffffffffffff16905090565b6104c86107e8565b600460009054906101000a900460ff1615610518576040517f08c379a000000000000000000000000000000000000000000000000000000000815260040161050f90610cbf565b60405180910390fd5b6001600460006101000a81548160ff021916908315150217905550804261053f9190610d0e565b60038190555050565b600460009054906101000a900460ff16610597576040517f08c379a000000000000000000000000000000000000000000000000000000000815260040161058e90610d8e565b60405180910390fd5b60035442106105db576040517f08c379a00000000000000000000000000000000000000000000000000000000081526004016105d290610dfa565b60405180910390fd5b6000600254346105eb9190610e1a565b905080600560008282546105ff9190610d0e565b92505081905550600160009054906101000a900473ffffffffffffffffffffffffffffffffffffffff1673ffffffffffffffffffffffffffffffffffffffff1663a9059cbb33836040518363ffffffff1660e01b8152600401610663929190610b74565b6020604051808303816000875af1158015610682573d6000803e3d6000fd5b505050506040513d601f19601f820116820180604052508101906106a69190610bc9565b6106e5576040517f08c379a00000000000000000000000000000000000000000000000000000000081526004016106dc90610c53565b60405180910390fd5b3373ffffffffffffffffffffffffffffffffffffffff167f8f28852646c20cc973d3a8218f7eefed58c25c909f78f0265af4818c3d4dc2718260405161072b919061098a565b60405180910390a250565b60035481565b6107446107e8565b600073ffffffffffffffffffffffffffffffffffffffff168173ffffffffffffffffffffffffffffffffffffffff16036107b65760006040517f1e4fbdf70000000000000000000000000000000000000000000000000000000081526004016107ad9190610a44565b60405180910390fd5b6107bf8161086f565b50565b600160009054906101000a900473ffffffffffffffffffffffffffffffffffffffff1681565b6107f0610933565b73ffffffffffffffffffffffffffffffffffffffff1661080e610497565b73ffffffffffffffffffffffffffffffffffffffff161461086d57610831610933565b6040517f118cdaa70000000000000000000000000000000000000000000000000000000081526004016108649190610a44565b60405180910390fd5b565b60008060009054906101000a900473ffffffffffffffffffffffffffffffffffffffff169050816000806101000a81548173ffffffffffffffffffffffffffffffffffffffff021916908373ffffffffffffffffffffffffffffffffffffffff1602179055508173ffffffffffffffffffffffffffffffffffffffff168173ffffffffffffffffffffffffffffffffffffffff167f8be0079c531659141344cd1fd0a4f28419497f9722a3daafe3b4186f6b6457e060405160405180910390a35050565b600033905090565b60008115159050919050565b6109508161093b565b82525050565b600060208201905061096b6000830184610947565b92915050565b6000819050919050565b61098481610971565b82525050565b600060208201905061099f600083018461097b565b92915050565b600080fd5b6109b381610971565b81146109be57600080fd5b50565b6000813590506109d0816109aa565b92915050565b6000602082840312156109ec576109eb6109a5565b5b60006109fa848285016109c1565b91505092915050565b600073ffffffffffffffffffffffffffffffffffffffff82169050919050565b6000610a2e82610a03565b9050919050565b610a3e81610a23565b82525050565b6000602082019050610a596000830184610a35565b92915050565b610a6881610a23565b8114610a7357600080fd5b50565b600081359050610a8581610a5f565b92915050565b600060208284031215610aa157610aa06109a5565b5b6000610aaf84828501610a76565b91505092915050565b6000819050919050565b6000610add610ad8610ad384610a03565b610ab8565b610a03565b9050919050565b6000610aef82610ac2565b9050919050565b6000610b0182610ae4565b9050919050565b610b1181610af6565b82525050565b6000602082019050610b2c6000830184610b08565b92915050565b600081519050610b41816109aa565b92915050565b600060208284031215610b5d57610b5c6109a5565b5b6000610b6b84828501610b32565b91505092915050565b6000604082019050610b896000830185610a35565b610b96602083018461097b565b9392505050565b610ba68161093b565b8114610bb157600080fd5b50565b600081519050610bc381610b9d565b92915050565b600060208284031215610bdf57610bde6109a5565b5b6000610bed84828501610bb4565b91505092915050565b600082825260208201905092915050565b7f5472616e73666572206661696c65640000000000000000000000000000000000600082015250565b6000610c3d600f83610bf6565b9150610c4882610c07565b602082019050919050565b60006020820190508181036000830152610c6c81610c30565b9050919050565b7f50726573616c6520616c72656164792073746172746564000000000000000000600082015250565b6000610ca9601783610bf6565b9150610cb482610c73565b602082019050919050565b60006020820190508181036000830152610cd881610c9c565b9050919050565b7f4e487b7100000000000000000000000000000000000000000000000000000000600052601160045260246000fd5b6000610d1982610971565b9150610d2483610971565b9250828201905080821115610d3c57610d3b610cdf565b5b92915050565b7f50726573616c65206e6f74207374617274656400000000000000000000000000600082015250565b6000610d78601383610bf6565b9150610d8382610d42565b602082019050919050565b60006020820190508181036000830152610da781610d6b565b9050919050565b7f50726573616c6520656e64656400000000000000000000000000000000000000600082015250565b6000610de4600d83610bf6565b9150610def82610dae565b602082019050919050565b60006020820190508181036000830152610e1381610dd7565b9050919050565b6000610e2582610971565b9150610e3083610971565b9250828202610e3e81610971565b91508282048414831517610e5557610e54610cdf565b5b509291505056fea26469706673582212204bb5e00efa4c61a0b91bf0ff9419737ca7d1fa0d49c135c3fe80cd0191e6952f64736f6c63430008180033",
  "linkReferences": {},
  "deployedLinkReferences": {}
}